:020000040800F2
:1000000030080020952D00085B2D00085D2D0008AC
:100010005F2D0008612D0008632D0008000000001E
:10002000000000000000000000000000652D000836
:10003000672D000800000000692D00086B2D0008E6
:10004000AD2D0008B12D0008B52D0008B92D000810
:10005000BD2D0008C12D0008C52D0008C92D0008C0
:10006000CD2D0008D12D0008D52D0008D92D000870
:10007000DD2D0008E12D0008E52D0008E92D000820
:10008000ED2D0008F12D0008F52D0008F92D0008D0
:10009000FD2D0008012E0008052E0008092E00087D
:1000A0000D2E0008112E0008152E0008192E00082C
:1000B0001D2E0008FB290008092A0008212E00082F
:1000C000252E0008292E00082D2E0008312E0008AC
:1000D000352E0008392E00083D2E0008412E00085C
:1000E000452E0008492E00084D2E00082DE9F14F3D
:1000F000B0B0924604910DF142013A9A2B91994683
:100100004A7000200AE01AF8011B0498309A9047C0
:100110000028049000F0A6860D98401C0D909AF8D7
:10012000000050B12528EED100210022079108924D
:1001300009910A920B910C9204E00D9800F094BE84
:1001400041F001011AF8010F2028F9D023280CD022
:100150002B2804D02D2805D0302809D00BE041F001
:100160000201EFE741F00401ECE741F00801E9E7A3
:1001700041F01001E6E72A280FD1D9F8002052F803
:10018000040BC9F8002000280F9003D540420F90BF
:1001900041F004010AF1010A14E00F92DFF824385B
:1001A0000AE00F98984205DA00EB800402EB440263
:1001B000303A0F920AF1010A9AF80020A2F13000B9
:1001C0000A28EED39AF800002E2803D04FF0FF3211
:1001D0000E9229E01AF8010F2A2809D1D9F8000057
:1001E00050F8042BC9F800000E920AF1010A1BE036
:1001F0002D280CBF0AF1010A002000220E92DFF820
:10020000C4470BE040B90E9AA24205DA02EB820520
:1002100003EB4503303B0E930AF1010A9AF80030D4
:10022000A3F130020A2AEDD3ADF84010DFF89807A9
:10023000784400F294709AF8001000F02FFF08B193
:100240001AF8010B8DF842009DF84200682805D18C
:100250009AF8000068280CD1622106E06C2804BFDF
:100260009AF800006C2804D171218DF842100AF12F
:10027000010A12A806901AF801BBBBF125012CD087
:100280001C3900F0CF81091F022940F2CB811339BC
:1002900000F01385093900F0C581891E00F0A8859A
:1002A000491E00F05585491E022940F2BB81091FF5
:1002B00000F04E85491F00F02881491E00F0FD84A2
:1002C000491E00F0D080C91E0DD0891E00F0F584B3
:1002D000C91E00F0F28400F096BD25238DF8483049
:1002E000012100F09BBDD9F8000050F8044BC9F87B
:1002F0000000002C059440F0A3802B99487800283A
:1003000000F099804FF0FF340FF6643000F0D2FE19
:10031000201A40F0A78500F082BD6D1E40F099853F
:100320003096079D12AF75B1309E17F8012B02A9C8
:10033000304600F063FE002801D46D1EF5D1002880
:10034000309640F08F850A9D3020002D8DF80400F6
:100350000CDD309E012301AA02A9304600F05EFEAA
:10036000002840F07F856D1EF4D13096059F089DD2
:1003700075B1309E17F8012B02A9304600F03EFE01
:10038000002801D46D1EF5D10028309640F06A8512
:100390000B9D3020002D8DF804000CDD309E0123D4
:1003A00001AA02A9304600F039FE002840F05A8523
:1003B0006D1EF4D1309605980899099D471875B1BE
:1003C000309E17F8012B02A9304600F017FE0028D6
:1003D00001D46D1EF5D10028309640F043850C9D68
:1003E0003020002D8DF804000CDD309E012301AA81
:1003F00002A9304600F012FE002840F033856D1E41
:10040000F4D130969DF8400041077FF588AE20205A
:10041000002C8DF804007FF782AE309D012301AAE5
:1004200002A9284600F0FAFD002840F01B85641E52
:10043000F4D1309573E60FF64440059000F0EFBC20
:100440000E9D002D04D5204600F054FE044607E022
:100450002A46204600F06AFE002814BF041B2C46E2
:10046000089400F0DCBCD9F8001051F8040BC9F86E
:10047000001020F00004002121F0FF3512ABCDE97F
:1004800002450593DDE9022306993C2413B90AB914
:100490000E9898B102F00F053035641EEEB23A2E78
:1004A000A8BF2735120942EA03721B090D5508BF80
:1004B000002A03D005980D19A842EBD3081905901E
:1004C000C4F13C020E98089282420ADABDF840104C
:1004D000821A4FF6EF7001400A92ADF8401000F01A
:1004E0009EBC002840F19B849DF8400000F0140061
:1004F000102840F094840F9B07990A985B1A1B1AE6
:100500009A1A002A40F38B84D5E32B99487820B1BE
:100510004FF0FF340FF63430F8E69DF842006228C1
:1005200061D0682817D06A283FD06C2806D071287F
:1005300047D074282CD07A281DD064E0D9F8001058
:1005400051F8040BC9F80010002868D14FF0FF34AF
:100550000FF61030DAE6D9F8001051F8040BC9F89C
:10056000001020B94FF0FF340FF6F820CEE60D99B9
:10057000018000F054BCD9F8001051F8040BC9F800
:10058000001000284BD14FF0FF340FF6D820BDE605
:10059000D9F8001051F8040BC9F8001000283ED11A
:1005A0004FF0FF340FF6BC20B0E6D9F8001051F838
:1005B000040BC9F8001080B94FF0FF340FF6A420E7
:1005C000A4E6D9F8001051F8040BC9F8001020B9BE
:1005D0004FF0FF340FF68C2098E60D9AD317C0E940
:1005E000002300F01CBCD9F8001051F8040BC9F826
:1005F000001020B94FF0FF340FF6682086E60D9901
:10060000017000F00CBCD9F8001051F8040BC9F8C7
:10061000001020B94FF0FF340FF6482076E60D9910
:100620000160FCE3D9F80020D21D22F00702C9F8CE
:100630000020D2E900010832C9F80020CDE902010A
:10064000C80F02D007982D210AE0BDF840008107AD
:1006500002D507982B2103E0C00705D50798202174
:1006600012AA1154401C079012A807994BF02002BF
:100670004318DDE90201CDE92C01612A059321AC83
:100680000BD00E98002802D506200E9005E001BF81
:100690004BF02000672801210E91DDE9020148009E
:1006A0004015401C0A460DD109030BD0ABF1610582
:1006B00003201A2D089002D20FF6C4110DE00FF698
:1006C000C4110AE070B912030CD1ABF1610503202B
:1006D0001A2D08901AD30FF6B4110322184600F011
:1006E00051FD9CE3DDE90201CDE92E01DDE92E2378
:1006F00023F00047B7F5801F22F000060DD200223C
:10070000002F08BF002E009203D116E00FF67811DB
:10071000E3E76A4600F08AFD0FE0DFF8C008DFF883
:10072000C01800EB17500090DDE92E234FF0FF308A
:100730001940DFF8B07810403943CDE902014BF0A1
:10074000200061280DD1059830210170821CBBF179
:10075000610F05920CBF7821582141700798801CC9
:100760000790DDE9020120F0000231F0004308BFEC
:10077000002A02D10026002568E14BF02008B8F1DC
:10078000610F40F0B4800E98002847BF21210191ED
:10079000401C0190019FDDE92C017F1C00220023F9
:1007A000DDE9024500F07AFD00998DF8842038BF1C
:1007B00085F00045091F002F00910DF1850653DDDE
:1007C000204629460022002300F080FD4CD248003C
:1007D000400D00F11C0312D0002B10DD40F2FF7021
:1007E000834206DBDFF8001805F0004211430020C9
:1007F00011E06FF31E5141EA035120460BE024F053
:10080000000035F0004108BF00280FBF29461C2218
:10081000294600F073FD04460D4600F00DFEFF1F53
:10082000002F804609DD00F025FE02460B462046DB
:10083000294600F031FE04460D46F01D0721B8F1AF
:10084000000F0CDD491E5EBF08F00F0200F8012DFD
:100850004FEA2818F3D502E0002200F8012D491EC6
:10086000FAD5C61D002FABDC0DF18500361A0198B4
:100870008642D8BF304600280DF1850430D4B042FE
:1008800006DA0DF185010A5C082AA8BF0F2100DAFB
:100890000021024621AB134400E0401E13F8015929
:1008A000521E8D42F9D00F2904D10DF185018B5CC8
:1008B0005B1C8B54002A04D50099091D21AC401CF7
:1008C0000091411E0CD46218ABF13A061378303314
:1008D000DDB23A2DA8BFF318491E02F80139F5D54B
:1008E0000E99002940F1B080421E0E92ACE00099B2
:1008F000DFF8F82647F29750414391FBF2F2DDE929
:100900002C45009225F00045D2F1070204DD204677
:10091000294600F040FB0BE052420020DFF8D016E1
:1009200000F039FB02460B462046294600F026FE21
:100930000446B8F1660F0E9806BF009F0A370627D7
:100940003F18142FC8BF142730200D468DF884009F
:100950000DF18506002F39DD2046294600F032FFD3
:1009600001460A4606F1080304200A26B2FBF6F601
:1009700006EB860EA2EB4E02303203F8012C0A225F
:10098000B6FBF2F202EB820EA6EB4E063036401EAC
:1009900003F8026DE9D1083F002F03F10806D9DD05
:1009A000084600F023FF02460B462046294600F089
:1009B00073FD0022DFF83C3600F026FF04460D46AA
:1009C000CAE700BFCBCCCC0CDC2300000DF18500C6
:1009D000361A0DF1850404E00098401E761E009042
:1009E000641C20783028F7D0B8F1660F02D1009946
:1009F000491C04E0B8F1650F0CBF012100210E98DD
:100A000008188642B8BF701E00281DD4B04204DA10
:100A1000215C3429C8BF392100DC30210246631E25
:100A20009D1800E0401E15F80169521E8E42F9D053
:100A3000392902D1A15C491CA154002A04D500998E
:100A4000491C1C46401C00910646009D0E9F30B27A
:100A5000002802DC01260FF238644BF020006628E3
:100A600008BF6D1C15D067280FFA85F841D118F121
:100A7000040F44DBB84542DA9DF840006D1C0107C5
:100A800003D430B2B842B8BF074628B23F1A48BFB5
:100A900000270FFA85F8B8F1000F00F3AF8008982F
:100AA000411C0891302205990A54002F03DC9DF85F
:100AB0004000010705D50898411C08912E22059990
:100AC0000A5417EB080FB8BF7D4228B2C51932B2DD
:100AD000414295420B91B8BF2E46059B089836B20D
:100AE000099632462146184400F04CFBAD1B0C958C
:100AF000CCE0BBF1610F15D14FF0700B17E030B2B5
:100B0000B84204DA9DF840100A0758BF07467F1E16
:100B100048BF0027BBF1670F14BF4FF0450B4FF0E4
:100B2000650B04E0BBF1410F08BF4FF0500B089874
:100B3000411C0891002F059914F8012B0A5403DC7D
:100B40009DF84000010719D50898411C08912E22F4
:100B500005990A54002F11DD761E30B287420598A0
:100B6000089BB8BF3E4632B22146184400F00AFB4B
:100B7000089836B23018BF1B08900B970598089953
:100B80000844B8F1000F80F800B003D42B22427063
:100B9000821C04E02D2145464170821C6D420021DB
:100BA0002CAB28460AE004460A2094FBF0F000EB48
:100BB0008005A4EB450403F8014B491C00B2002852
:100BC000F1DC012906DC4BF02000652804BF302051
:100BD00002F8010B00292CAB08D1302002F8010BE0
:100BE00006E0491E585C303002F8010B0029F8DCA1
:100BF000059908980844121A099247E030B229B2C0
:100C000088421BDA0598089B32B22146184400F04E
:100C1000B9FA089936B27118A8EB0606002F0891A8
:100C20000B9603DC9DF84000020705D5059A2E209F
:100C300050540999491C09910C9727E00598089B85
:100C40002AB22146184400F09DFA0898761B4044C9
:100C5000002F089003DC9DF840100A0704D5411CC2
:100C600008912E2205990A5430B287420598089BB4
:100C7000B8BF3E4632B204EB0801184400F082FAD5
:100C8000089836B23018BE1B08900B969DF84000AD
:100C900000F01400102840F0C280079A08990B98C1
:100CA0008A18099982180C988A1882180F9882421B
:100CB00080F2B580821A0A92B1E09DF84200622863
:100CC00008D068280ED06A2814D06C281FD071284C
:100CD00010D01CE0D9F8001051F8040BC9F800102E
:100CE000C0B21AE0D9F8001051F8040BC9F800108E
:100CF00080B212E0D9F80020D21D22F00702C9F814
:100D00000020D2E900010832C9F8002006E0D9F835
:100D1000001051F8040BC9F800100021CDE90201C0
:100D20009DF8400001075AD5DDE90223002B08BFDA
:100D3000002A54D04BF02000782850D1079812A9EF
:100D400030220A54401C431C079301F800B046E0CF
:100D50009DF84200622808D068280ED06A2814D076
:100D60006C281FD0712810D01CE0D9F8001051F861
:100D7000040BC9F8001040B21AE0D9F8001051F87D
:100D8000040BC9F8001000B212E0D9F80020D21DFF
:100D900022F00702C9F80020D2E900010832C9F8A0
:100DA000002006E0D9F8001051F8040BC9F8001033
:100DB000C117CDE90201002902D507982D210AE0CB
:100DC000BDF84000810702D507982B2103E0C0073A
:100DD00005D50798202112AA1154401C079012A88B
:100DE00007990144059102A8594600F04FF816E012
:100DF00001200790D9F8000050F8041BC9F8000042
:100E00008DF848100BE025210122BBF1000F8DF871
:100E10004810079203D08DF849B0022107910F9A2C
:100E200007980A990C9C121A0898521A0B99121AD0
:100E30000998521A121A9DF84000141B41073FF5F9
:100E400070AA2020002C8DF804007FF76AAA309E3B
:100E50002546012301AA02A9304600F0DFF8002848
:100E60003FF45BAA4FF0FF3031B0BDE8F08F0000D7
:100E70007072696E74665F733A20626164202573D4
:100E800020617267756D656E740000002DE9FC438A
:100E900007466F293E6908BF082405D041F02000AD
:100EA000782814BF0A2410243C25D7E9002364299C
:100EB00018BF69299046994605D1002B03D5D8F172
:100EC000000869EB4909B9F1000F08BFB8F1000F3C
:100ED0000CD1386B50B9082C39D197F8380001077C
:100EE00035D530203B2586F83B0030E08DF80010EA
:100EF000404649462246E31700F058FD3032D0B252
:100F00006D1E3A28019504DB9DF80000A0F1510107
:100F10008A187255404649462246E31700F046FDBE
:100F200080465FEA010908BFB8F1000F03D0F868F6
:100F300071198842DCD3082C09D197F838000107D1
:100F400005D5705D302802D06D1E30207055C5F17A
:100F50003C02BA617119F960386B824208DA821A70
:100F60003A624FF6EF70398F01403987BDE8F3835D
:100F700000280ED597F8380000F01400102808D18A
:100F80007B6B7969386A5B1A1B1A9A1A002AC8BFE8
:100F90003A62BDE8F3832DE9D04306460F46144676
:100FA0004FF00008DFF8509012E0E00707D5424606
:100FB0004B463046394600F027FC06460F46404671
:100FC000494642464B4600F01FFC64108046894665
:100FD000002CEAD130463946BDE8D08302FCFFFF41
:100FE000FFFF0F800000E03F0000F07FA0860100BF
:100FF0000000F03F84D797410000244010B503461D
:101000000C461146A0689847A06020B1E06A401CD9
:10101000E062002010BD4FF0FF3010BDF8B505466E
:101020000E4617461C4600205CB117F8011BB0683D
:10103000A847B06030B1F06A401CF0620020641E26
:10104000F3D1F2BD4FF0FF30F2BD00007072696E57
:1010500074665F733A20256E20646973616C6C6FEF
:10106000776564007072696E74663A20626164200C
:10107000256E20617267756D656E7400000000005A
:101080006E616E004E414E00696E6600494E46002C
:1010900030000268531C036011707047C9B20278B7
:1010A0008A421AB11CBF10F8012FF9E718BF0020BF
:1010B0007047000080B500B906A005490B681BB158
:1010C00022220021984701E000F088FD222002BD85
:1010D00024000020636F6E73747261696E742068FF
:1010E000616E646C65723A20626164206D65737331
:1010F0006167650000F10103810704D010F8011B4E
:10110000820781B1FAD10268A2F10131914311F055
:10111000803104BF50F8042FF6E709BAB1FA81F123
:1011200000EBD100401CC01A70470000C9B2830711
:1011300006D0521E22D310F8013B9942F7D11FE08E
:10114000083A13D302F1040241EA012141EA0141C4
:1011500050F8043B121F21BF4B40A3F1013C2CEA85
:10116000030C1CF0803FF3D0C9B2001F083210F806
:10117000013B521E28BF91EA030FF8D818BF012087
:10118000401E704762B38B0708D0521E11F8013B16
:1011900000F8013B00F024808B07F6D1830740F074
:1011A000208000BF103A07D330B4B1E83810103AAD
:1011B000A0E83810F9D230BC530724BFB1E80810BA
:1011C000A0E8081044BF51F8043B40F8043BD207A4
:1011D00024BF31F8022B20F8022B44BF0B78037098
:1011E0007047121F17D35B0009D151F8043B20F858
:1011F000023B1B0C121F20F8023BF6D20BE051F809
:10120000043B00F8013B1B0A20F8023B1B0C121F99
:1012100000F8013BF3D238BF121D521E24BF11F853
:10122000013B00F8013BF8D87047000010B51446A8
:1012300000F002F8226010BDC1F30A5343B14A0026
:1012400012F5001F28D2A3F2FE32A1EB0251704723
:1012500050EA410C20D001F0004C31EA0C01B1FA07
:1012600081F204BFB0FA80F3D2180B3AB2F1200336
:101270002CBF00FA03F1914041EA0C013EBFC2F1DC
:10128000200C20FA0CF319439040524240F2FD33F7
:10129000D21A01EB03517047002270474FF4001C33
:1012A0001CEB410F94BF1CEB430F09E041EA030C18
:1012B00050EA4C0C52EA0C0C03D2994208BF9042FF
:1012C000704714BF8B428242704700004FF4001CED
:1012D0001CEB410F94BF1CEB430F09E041EA030CE8
:1012E00050EA4C0C52EA0C0C03D28B4208BF8242EB
:1012F000704714BF9942904270470000124254D484
:1013000040F2FF7C1CEA11530FD0634531D09B188B
:1013100063453CBF01EB0251704701F0004141EAD7
:101320000C510020AFF30080704750EA410320D0F9
:1013300001F0004C91EA0C011CD0B1FA81F30B3B97
:101340009A420DD9D21A994051EA0C01C3F1200CEE
:1013500020FA0CFC61449840531C40F2FF7CD7E714
:10136000914041EA0C01C2F1200C20FA0CF3194320
:1013700090407047B0FA80F31533202BE0D3202A39
:10138000EED3203A203B9A4209D9D21A00FA03F14F
:1013900041EA0C010020531C40F2FF7CB8E700FA40
:1013A00002F141EA0C0100207047524240F2FF7CFA
:1013B0001CEA11530DD06345DBD0B2EB030C3CBFEC
:1013C000A1EB025170470CF1010221EA035141F4F3
:1013D000801150EA410CCCD001F0004C352A27DCBA
:1013E00030B481EA0C01B2F1200309DAC2F1200322
:1013F000044601FA03F5D0402843D1409C400CE05C
:10140000C3F12002450020FA03F418BF44F00104A0
:1014100021FA03F091400C43002174F1004550F192
:10142000000051EB0C01244230BC7FF47BAF7047CD
:101430006146002076E70000C1F30A5340F2FE3215
:101440009B1A14DDD3F120034FEAE17208DDC902D3
:1014500041EA505141F00040D84080185040704758
:1014600003F2E13010B1D24382F000407047002017
:1014700070470000C11768B14840401AB0FA80F2C6
:101480009040D21CC907C2F5846241EA025202EBC5
:10149000D02140057047000070B44FF0004591EA3C
:1014A000030F40F19F836B40841A71EB030603D254
:1014B000001BB141121973414FF4001C1CEB410F8A
:1014C00034BF7CEB430442E00C0DA4EB1356352EE5
:1014D0004FDC45EAC323DB0A45EAC121C912B6F154
:1014E00020050DDD63FA05F6EB4086EA030512429E
:1014F00018BF45F00105C01851F100010CD213E0EE
:1015000062FA06F5F2405540F3415A40B340F340C9
:101510005A408018594107D349085FEA30005FEA12
:10152000350528BF45F0010501F58011420875F128
:10153000004250F1000041EB04514E0016F5001F2F
:1015400070BC38BF70470020090D090570471CEBBF
:10155000410F10D252EA43060BD0BCEB410F05D825
:101560000C0DAB43661E342EB6DD02E0AB43801893
:10157000594170BC704770BC70470000F0B540F234
:10158000FF7581EA030C0CF0004C15EA11541DBFE5
:1015900015EA1357AC42AF42E5E0BC41C1F3130179
:1015A000C3F31303801A994143F4801304D2641ED9
:1015B0004000494180185941C90241EA5051B1FBEC
:1015C000F3F603FB1611A2FB0675D7EBC020A94169
:1015D00002D2761E80185941C90241EA5051B1FB2E
:1015E000F3FE03FB1E11A2FB0E75D7EBC020A94131
:1015F00003D2AEF1010E80185941890241EA90519F
:10160000760546EA8E2EB1FBF3F603FB1611A2FB1C
:101610000675D7EB8020A94102D2761E8018594169
:10162000C90241EA50514EEA060EB1FBF3F603FB44
:101630001611A2FB0675D7EBC020A94102D2761E77
:1016400080185941C90241EA5051B1FBF3F703FB3D
:101650001711A2FB0735D3EBC020A94167F10007A2
:101660000CBF004247F0010766F3D5274FEA1E3151
:10167000B80814F5806412DDBD0775F1004250EB27
:101680000E5051EB045111F5801F5CBF41EA0C0173
:10169000F0BD4CF07F6141F0E0410020F0BDBD079E
:1016A0006D0840EA0E5041F48011D4F10104B4F108
:1016B00020060ADAC4F120060200E04001FA06F32F
:1016C000E1401843B24015430EE0342C13DCC6F160
:1016D000200445EA40056D0820FA06F2154321FA78
:1016E00006F0A1400D43002175F1004250F10000C9
:1016F00051EB0C01F0BD00205FEA0C01F0BDCFB949
:1017000092185B41B3FA83F704BFB2FA82F6BF19AD
:101710000B3FB7F120062FBF02FA06F3BB40C7F11B
:10172000200622FA06F638BF3343BA401CB1E4194A
:10173000641E33E77F4231F00041B1FA81F404BF07
:10174000B0FA80F6A4190B3CB4F120062FBF00FAC2
:1017500006F1A140C4F1200620FA06F638BF314355
:10176000A0403C1B1AE7AC421ABF05EA1357AF4230
:1017700012E050EA41061CBF52EA4306BFE750EAB6
:101780004107304661461CBF41EA0551F0BD52EAAF
:10179000430C08BFC143F0BD00204FF4001616EB08
:1017A000410F98BF16EB430F08BF16EB410F24BF44
:1017B000C14305E016EB430F0CBF61464CEA0551EF
:1017C000F0BD0000400D491840EA81200CD2490DBF
:1017D000A1F58061491C40F0004005DBD1F11F01FB
:1017E00054BFC840C017704700207047014648B139
:1017F000B0FA80F18840C91CC1F58461090501EB8C
:10180000D021400570470000B0B581EA030C0CF010
:10181000004C40F2FF7515EA11541DBF15EA13572D
:10182000AC42AF4239E0E41923EA455343F4801354
:10183000C90241F0004141EA505EC7021100A7FB16
:10184000020200284FF00000EEFB01204FF00001E3
:10185000E3FB072118BF42F0010240180021494173
:10186000E3FB0E01A4F580640F0302D25200404155
:10187000494154F101046CDD470872F1004250F116
:10188000000051EB0451A1F580115CBF41EA0C014D
:10189000B0BD4CEA05510020B0BD05EA1357AC427B
:1018A00014BFAF4241E050EA410E1CBF52EA430E62
:1018B00002E061460020B0BD24423C441BD15FEAF7
:1018C000070EF6D0090302BF01460020AEF1140E48
:1018D000B1FA81F7AEEB070401FA07FE0C37C7F146
:1018E000200100FA07F7C8404EEA000E23EA4553EC
:1018F00043F48013A2E733F00043B3FA83F704BF45
:10190000B2FA82FE77440B3FE41BB7F1200E2FBFE3
:1019100002FA0EF3BB40C7F1200E22FA0EFE38BFCA
:1019200043EA0E03BA40641C82E750EA410E14BF3A
:1019300052EA430E6FF000014FF4001717EB430F0C
:101940008ABF194617EB410FB5E74CEA0551002055
:10195000B0BDD4F10104B4F120070FDAC4F12007BF
:10196000520828BF42F0010210FA07F501FA07F702
:10197000E1BF2A43E0403843E1400FE0352C98DCDA
:10198000C7F1200452EA400220FA07F218BF42F0E1
:10199000010231FA07F0A1400A43002172F100422E
:1019A00050F1000051EB0C01B0BD0000BBBBE1B138
:1019B000B2F5803F80F07E80022A1ED98C46B1FBB2
:1019C000F2F102FB11C31B0443EA1043B3FBF2FC28
:1019D00002FB1C3380B240EA0343B3FBF2F002FB8C
:1019E000103240EA0C4000237047022A05D9844691
:1019F000B0FBF2F002FB10C270474AB105D100F013
:101A0000010249085FEA3000704700220023704756
:101A100000F09EB90B0002000021002070479042A8
:101A200071EB030CF6D3B3F5803F2FD2F0B5B3FAC8
:101A300083F7B1FA81F4A7F10F0E3D1B5340CEF1AD
:101A4000200602FA0EF2F3415340B5F10F0746D8D3
:101A50000F3C2C444140C4F12006A040F1414140DC
:101A6000B1FBF3F603FB1611A2FB0645001BA941CF
:101A700002D2761E8018594180EA010221FA0EF343
:101A800062FA0EF200215A403046F0BD30B4B1FB8C
:101A9000F3FC03FB1C11A2FB0C45001BA94103D264
:101AA000ACF1010C8018594130BC02460B4660462F
:101AB00000217047B2F1807F65D3F0B5B2FA82F7AA
:101AC000B1FA81F4C7F10F063D1B22FA06F307F1C4
:101AD000110EF24120355A40B5F10F07B8D94140F7
:101AE000C4F12006A040F1414140B1FBF3FC03FBEF
:101AF0001C11A2FB0C45001BA94103D2BCF1010C37
:101B0000801859410F2F12D30F3FC90341EA5041AA
:101B1000B1FBF3F603FB1611A2FB0645D4EBC03074
:101B2000A94102D2761E8018594146EACC3C07B33F
:101B30004140C7F12006B840F1414140B1FBF3F606
:101B400003FB1611A2FB0645001BA94102D2761E1B
:101B50008018594180EA010221FA0EF3C7F12004EE
:101B600062FA0EF20CFA07F05A402CFA04F13043F4
:101B7000F0BD80EA010221FA0EF3002162FA0EF2B2
:101B800060465A40F0BD8C46B1FBF2F102FB11C336
:101B90001B0243EA1063B3FBF2FC02FB1C331B0283
:101BA0004CEA002043EA1063B3FBF2FC02FB1C3357
:101BB0001B024CEA002043EA1063B3FBF2FC02FB79
:101BC0001C331B024CEA002043EA1063B3FBF2FC17
:101BD00002FB1C324CEA002000237047012000F079
:101BE000B9B80000841A71EB030604D26E40001BE2
:101BF000B141121973414FF4001C1CEB410F34BF6B
:101C00007CEB430683E00C0DA4EB1356362E00F359
:101C10007C80012E45EAC32341DC43EA525312BFC4
:101C2000D20292025B08240545EAC12141EA5051E3
:101C3000D2EBC020994125D407D1B0FA80F610FA32
:101C400006F162D00020203608E0B1FA81F6B140FA
:101C5000C6F1200220FA02F21143B0404FEAF474B8
:101C6000B4EB465434F001064FEA74040AD8D6F5B2
:101C70000016760D04F00044F04061FA06F2504080
:101C8000F1404840C00A40EA415021F0004128BFDD
:101C90005FEA500550F1000044EBD12135E0DB0A4A
:101CA00045EAC121C90AB6F120050EDD42EA024229
:101CB000120CC5F1200603FA06F6EB4042EA0605CF
:101CC0006D42984161F100010DE062FA06F5F240C3
:101CD000554063FA06FC82EA0C02F3405A406D421A
:101CE000904161EB030111F4801F05D1641E620570
:101CF00002D06D004041494121F48011430875F143
:101D0000004350F1000041EB045170BC70471CEBE4
:101D1000410F15D223F0004352EA43060BD04FEA9D
:101D20004C0CBCEB410F04D80C0D661E342EB7DDF5
:101D3000EBE7801A994150EA410608BF0021E4E729
:101D400008BF1CEB430F28BF6FF00001DDE7000068
:101D50007047000080B500F007F8024A1100182013
:101D6000ABBEFBE72600020010B500F052F80200FF
:101D700000230024E4431068A04203D01100022095
:101D8000ABBE13605068A04203D0111D0220ABBE51
:101D9000536010BDF0B583B0040000F03AF8A10024
:101DA00047183D680026F643B54216D100F01AF8F0
:101DB0003D68B5420FD100BF09A00090002C01D1B1
:101DC000002000E0042001900320029069460120D9
:101DD000ABBE05003D6000F014F8280003B0F0BD74
:101DE0003A7474000C480121BFF35F8FD0E84F3F75
:101DF000C0E8421F002AF9D1BFF35F8F002BF3D157
:101E000070470548BFF35F8F00210170BFF35F8FFC
:101E10007047024870470000280000201000002092
:101E20002DE9FC41040000F09281DFF8A4542078F1
:101E3000C00713D5686800F00C00042807D0686854
:101E400000F00C0008283FD16868C0033CD5286822
:101E5000800303D56068002800F07981207880072E
:101E600019D5686810F00C0F07D0686800F00C00F6
:101E700008286BD16868C00368D42868800703D538
:101E80002069012840F06381286820F0F80061692A
:101E900040EAC10028602078000740F18480DFF824
:101EA0004014A069002800F0A5800120086000F01F
:101EB0002FFA0646686A800772D400F029FA801B60
:101EC0000228F7D9032045E16068B0F5803F04D1CE
:101ED000286840F4803028601DE0002808D1286878
:101EE00020F480302860286820F48020286012E0E8
:101EF000B0F5A02F286807D140F48020286028681A
:101F000040F48030286006E020F4803028602868A3
:101F100020F480202860606800280BD000F0F8F9D9
:101F200006462868800399D400F0F2F9801B6528E2
:101F3000F7D3C7E700F0ECF90646286880038DD593
:101F400000F0E6F9801B6528F7D3BBE7DFF89413B0
:101F50002069002815D00120086000F0D9F9064654
:101F60002868800705D400F0D3F9801B0228F7D930
:101F7000A8E7286820F0F800616940EAC1002860FD
:101F800089E70020086000F0C3F90646286880074A
:101F90007FF581AF00F0BCF9801B0228F6D991E7EC
:101FA000012000F082F9207840077BD50026E869FF
:101FB000C00009D4E86940F08050E861E86900F0A9
:101FC0008050009000980126DFF81C733868C00527
:101FD0001ED4386840F48070386000F099F980466B
:101FE0003868C00514D400F093F9A0EB0800652808
:101FF000F6D367E70020086000F08AF90646686AB1
:102000008007D0D500F084F9801B0228F7D959E762
:10201000E068012804D1286A40F0010028621CE031
:10202000002808D1286A400840002862286A20F069
:102030000400286211E00528286A07D140F0040056
:102040002862286A40F00100286206E0400840004B
:102050002862286A20F004002862E06800280DD079
:1020600000F056F90746286A800715D400F050F9A9
:10207000C01B41F289318842F5D323E700F048F9CB
:102080000746286A800707D500F042F9C01B41F2D5
:1020900089318842F5D315E7012E03D1E86920F094
:1020A0008050E861E069002853D0696801F00C01B4
:1020B00008293FD0DFF82C6202282DD1002030669D
:1020C00000F026F907462868800105D500F020F9C0
:1020D000C01B0228F7D9F5E6206AB0F5803F05D18C
:1020E000696821F40031A06801436960696821F4DE
:1020F0007411206A0143606A0143696001203066FF
:1021000000F006F904462868800122D400F000F9A6
:10211000001B0228F7D9D5E60020306600F0F8F859
:1021200004462868800114D500F0F2F8001B02284C
:10213000F7D9C7E601280AD0686800F48031226A1E
:10214000914204D100F47010616A884201D00120EC
:1021500000E00020BDE8F6812DE9F04104460F467D
:10216000002C60D0614E306800F00700B84209D200
:102170003068C00857EAC0003060306800F00700DF
:10218000B84250D12068524D810712D5400703D57F
:10219000686840F4E06068602078000703D56868EC
:1021A00040F460506860696821F0F001A068014364
:1021B00069602078C00727D56068012803D12968A5
:1021C000890308D42FE00228296802D1890102D4AA
:1021D00029E0890727D56968890850EA8100686085
:1021E00000F096F88046686800F00C006168B0EB7B
:1021F000810F09D000F08CF8A0EB080041F2893182
:102200008842F0D3032032E0306800F007008742B4
:102210000BD23068C00857EAC0003060306800F068
:102220000700B84201D0012021E02078400705D501
:10223000696821F4E061E068014369602078000783
:1022400006D5686820F46050216940EAC1006860E2
:1022500000F010F826496A68C2F30312895CC8408E
:102260001D4908601D48006800F058F80020BDE8CE
:10227000F08100001F490A6802F00C00082812D102
:102280001EA0C2F38343C05CD20309D51FA2096814
:10229000C1F34041525C0F494843B0FBF2F0704734
:1022A0001549484370470B48704781B00A4909688F
:1022B000C9084FF47A72B1FBF2F14843009000BFB5
:1022C0000098411E00910028F9D101B0704700002C
:1022D0000010024000127A000C00002008000020CC
:1022E0008004424200004242007000400020024050
:1022F000842D00080410024000093D00020304057B
:10230000060708090A0B0C0D0E0F10100102000041
:1023100001484068704700BF0000002038B50446FF
:102320000E4D4FF47A702978B0FBF1F00C49096832
:10233000B1FBF0F000F066F8002801D0012032BDBA
:10234000102C08D2002221464FF0FF3000F04BF84D
:10235000AC60002032BD012032BD00BF0000002073
:102360000C00002028480068C0F3022070470901D3
:10237000020002D4254881547047254802F00F021C
:10238000104400F8041C704710B400F00700C0F1BE
:102390000703052B00D30423041D072C01D20020C2
:1023A00000E0C01E012404FA03F35B1E19408140C3
:1023B00004FA00F0401E1040084310BC704710B5EE
:1023C000401EB0F1807F01D3012010BD114C606030
:1023D0000F214FF0FF30FFF7CAFF0020A060072059
:1023E0002060002010BD70B504460D461646FFF76C
:1023F000B9FF32462946FFF7C7FF01462046BDE830
:102400007040B4E7DBE700000CED00E000E400E022
:1024100018ED00E010E000E0002801D0401EFDD1E2
:10242000704710B5624C2068C00701D4022010BD6F
:102430006068400840006060F020FFF7EDFF6068D2
:1024400040F0010060602320FFF7E6FF246804F0FD
:102450000104CD20FFF7E0FF2046401E8041C0432D
:10246000C00F10BD38B50446524D286840084000E2
:1024700028600120FFF7D0FF002C03D0286840F02F
:10248000010028601E20FFF7C7FF286840F0010008
:10249000286031BD10B5464C60684008400060605F
:1024A0000120FFF7B9FF606840F00100606007207D
:1024B000FFF7B2FF246804F001041E20FFF7ACFF11
:1024C000204610BD38B50446002505E00120A8408F
:1024D0002040FFF7C7FF6D1C2846C0B20828F5DB77
:1024E00031BD38B50024254607E0FFF7D3FF0028AB
:1024F00002D00120A84004436D1C2846C0B2082821
:10250000F3DB2046C0B232BD3EB52B4C022020602A
:10251000FFF787FFCC20FFF7D5FF4420FFF7D2FF5E
:1025200040F27710FFF778FFFFF77BFFCC20FFF733
:10253000C9FFBE20FFF7C6FF002504E0FFF7D1FF6B
:10254000694648556D1C092DF8DBBDF90000C0F344
:10255000061000EB8001480000B200F039F8054693
:10256000BDF9000000F00F0000F032F8134900F050
:1025700041F8294600F0BCF800F02CF900B2024600
:102580000AA10F4800F03CF94FF40030206037BD3D
:102590000C48016841F0040101600B48016841F0FA
:1025A000370101600949016170470000253364006B
:1025B000080801400C08014010080140CDCCCC3F78
:1025C000180000201810024000080140010002001D
:1025D000C2175040801AB0FA80F10AD08840D1F179
:1025E0009D01D20742EAC151020672F1004241EB5D
:1025F0001020704710B5FF2313EAD0541DBF13EA13
:10260000D1529C429A4239E0A41ADA0780EA0103C7
:10261000134042EA012142EA0020421A3CBF641EF4
:1026200001EB4202090AB2FBF1FE01FB1E2212027B
:10263000B2FBF1F001FB10226EF30F201202B2FB8D
:10264000F1FE4EEA00207F3406DDFF2C24DA53EA47
:10265000500050EBC45010BDD4F1020401FB1E2207
:1026600040F08071192C1DDC21FA04F0C4F1200423
:10267000A140114371F10042584110BD9C421ABF64
:1026800003EAD1529A420FE080EA010E0EF00043B5
:10269000400004D0490016D143F0FF4010BD49006E
:1026A00008BFD343180010BD9C4205D1D21AF7D001
:1026B00001F00041484010BD4A0212BF08464840A0
:1026C00000F0004010BD4AB90902B1FA81F2914010
:1026D00044B1A418C00140F000409EE7C90141F098
:1026E000004152420002B0FA80F4A040141B94E76B
:1026F00090EA010F40F1A48081F00041431A4FF0AD
:1027000000423EBF5340C01AC91800BFD3095FEA58
:10271000D05C13EB400F34BFB3EB410F40E07CEBD8
:10272000D1530CD342EA012122D8D1EB402009D366
:10273000400A28BF5FEA500140EBCC507047401A76
:1027400015D04002B0FA80F2521C9040400A4FEA85
:102750003C23B3EB026384BF00EB730007E040F45B
:1027600000001A16DB07C2F10102D040184370477F
:10277000182BFCDC31FA03F202FA03F3591A38BFC2
:1027800042F00102D2EB40203CBF4000ACF1010C12
:102790005FEACC5CC20572F100414CEB50207047FF
:1027A00013EB400F0FD2C94209D0ACEBD153022B2F
:1027B00003DB4902172BDDDD70479143401AC0420D
:1027C000D5D10020704713EB410FD0D36FF000003C
:1027D00070470000C0F3C7517E390EDDC217D1F13A
:1027E000200106DD000240F00040C8401044504087
:1027F0007047D04380F000407047002070470000D1
:102800000CB430B583B00A4606A9029104460025EF
:102810000194009502AB01A9084878441E30FDF7E9
:1028200065FC019A157000284EBF04460198041BF0
:10283000204603B030BC5DF80CFB00BF57E8FFFF3B
:10284000421A3CBF801A89184FF0004CC0F3C7529F
:10285000FF2A24D0C1F3C75313B3D21AD2F11903FC
:1028600027DD4CEA01214CFA03F321EA0303D140AE
:10287000C20D4CEA0020401834BF20EA0C004CEA9C
:102880005000D20553EA006373EB0C0C52EB10209E
:10289000420012F1807F38BF7047C00DC0057047FD
:1028A000490212BF9A4200EB5120F8E7D2F1170318
:1028B000D9D57047594A13684FF6FF010B40000203
:1028C00000F4E06018435649084310607047010067
:1028D00007D4012200F01F018A405249400941F803
:1028E000202070470901020002D44F4881547047EC
:1028F0004E4802F00F02104400F8041C704700B567
:102900008FB02822002105A800F0A5F8142200218C
:10291000684600F0A0F8012005904FF48030069042
:102920004FF4003107910121099102210C910D9082
:1029300000200E9005A8FFF773FA002802D036A0F9
:1029400000F084F80F200090022001909020029067
:1029500000200390049001466846FFF7FDFB002825
:1029600002D02DA000F072F80FB000BD10B53048B5
:10297000016841F00601016000211E20FFF7B2FF4F
:102980001E20FFF7A4FF2B48C16841F00101C16080
:1029900040F2CF7484620121C162016841F00101FB
:1029A000016001211D20FFF79DFF1D20FFF78FFF14
:1029B0002148C16841F00101C160846240F2E73101
:1029C000C162016841F00101016010BD10B51B4CEE
:1029D000206840F0010020601948016841F0007152
:1029E00001600320FFF766FF606840F08050606080
:1029F0000F20BDE81040FFF791BC80B5FFF784FDC4
:102A000000201049086001BD80B500F071F8002079
:102A10000D49086001BD0000000000000CED00E061
:102A20000000FA0500E100E000E400E018ED00E03D
:102A30001C10024000080040000400401810024032
:102A400004000140100400401008004080B500F070
:102A50005BF872B6FEE710B5044610460A4601461A
:102A6000204600F065F8204610BD00001C480168B3
:102A700041F0080101601B494FF0333008604A689B
:102A800040F2333002434A60174808611748012278
:102A9000027002224270032282700C314160017A7E
:102AA00001F0F80141F00101017270470F48017A0D
:102AB00001F007014910415CA1F130020A2A01D25C
:102AC000303902E00A2900DD0A214268B2F80030FC
:102AD00023F0FF0309A0C9B2405C03431380704791
:102AE00018100240000C01400000FF0318000020F5
:102AF00080B500F051F8BDE80140D7E7045E090A4F
:102B00005222204E0002FF000EB4C0B5024603A8B8
:102B100000210190009101AB0121044878440C3060
:102B2000FDF7E4FA06BC5DF810FB00BF19020000D7
:102B300062F30F2262F31F42401810F0030308D023
:102B4000C91A1FD3DB0748BF00F8012D28BF20F8A2
:102B5000022D130030B414461546103928BF20E961
:102B60003C00FAD8490728BF20E90C0048BF40F8CC
:102B7000042D890028BF20F8022D48BF00F8012D40
:102B800030BC7047C91818BF00F8012DCB0728BF0B
:102B900000F8012D704700000E48027A02F0F8019B
:102BA000520002F007021143017211F0070F04D125
:102BB00001F0F80141F00101017241680A8802F058
:102BC000FF02007AC043000200F4E06002430A8082
:102BD000704700BF1800002030B5016884684218B3
:102BE000416802EB5103C90703D54C4401E0491C7D
:102BF00005D19A420AD012F9011B12F8015B002993
:102C000004F8015BF3D4491EF7D5F2E70C3030BD70
:102C100010B5074979441831064C7C44163404E059
:102C20000A68081D114488470146A142F8D110BD29
:102C30002C0000003800000018B583B00300140019
:102C400000930191029469460520ABBE0122190050
:102C5000201AAFF3008004B010BD00007DFFFFFF1D
:102C6000F0010000200000000000002080B58DF879
:102C7000000001226946012000F008F8012802D175
:102C80009DF8000002BD4FF0FF3002BD80B5002866
:102C900002D400F003F802BD002002BD80B5002977
:102CA00001D1002002BD012801D0022802D100F08C
:102CB00004F802BDFFF7C0FF02BD30B583B00C00C1
:102CC00015000120FFF766F800900194029569460F
:102CD0000520ABBE281A03B030BD000000F00DF88F
:102CE000002801D0FFF794FFAFF300800020AFF37E
:102CF000008000F004F800F00EF80120704780B565
:102D0000FFF764FEFFF7FBFDFFF7B0FEFFF740FCA7
:102D1000FFF72CFEFEE700F001B80000074638463A
:102D2000FFF718F8FBE700000548014603B46846C2
:102D300080F30988AFF30080AFF30080FFF7CEFF88
:102D4000A5EDF5FE38B504460D462846FFF78EFF83
:102D5000A84218BF0024204632BDFEE7FEE7FEE78A
:102D6000FEE7FEE770477047704700F001B80000CB
:102D700002494A68087882184A60704700000020BB
:102D80007047000000000000000000000102030482
:102D9000060708090148804701480047812D0008BF
:102DA000292D0008686A6C747A4C0000FFF7FEBF9A
:102DB000FFF7FEBFFFF7FEBFFFF7FEBFFFF7FEBF47
:102DC000FFF7FEBFFFF7FEBFFFF7FEBFFFF7FEBF37
:102DD000FFF7FEBFFFF7FEBFFFF7FEBFFFF7FEBF27
:102DE000FFF7FEBFFFF7FEBFFFF7FEBFFFF7FEBF17
:102DF000FFF7FEBFFFF7FEBFFFF7FEBFFFF7FEBF07
:102E0000FFF7FEBFFFF7FEBFFFF7FEBFFFF7FEBFF6
:102E1000FFF7FEBFFFF7FEBFFFF7FEBFFFF7FEBFE6
:102E2000FFF7FEBFFFF7FEBFFFF7FEBFFFF7FEBFD6
:102E3000FFF7FEBFFFF7FEBFFFF7FEBFFFF7FEBFC6
:102E4000FFF7FEBFFFF7FEBFFFF7FEBFFFF7FEBFB6
:102E50000001F9000010FC000224F400F8FFEF006C
:0400000508002D2999
:00000001FF
